{
  "_format": "hh-sol-artifact-1",
  "contractName": "KIP7",
  "sourceName": "contracts/test/MocksKRNO.sol",
  "abi": [
    {
      "constant": true,
      "inputs": [
        {
          "name": "",
          "type": "bytes4"
        }
      ],
      "name": "supportsInterface",
      "outputs": [
        {
          "name": "",
          "type": "bool"
        }
      ],
      "payable": false,
      "stateMutability": "view",
      "type": "function"
    },
    {
      "constant": false,
      "inputs": [
        {
          "name": "spender",
          "type": "address"
        },
        {
          "name": "value",
          "type": "uint256"
        }
      ],
      "name": "approve",
      "outputs": [
        {
          "name": "",
          "type": "bool"
        }
      ],
      "payable": false,
      "stateMutability": "nonpayable",
      "type": "function"
    },
    {
      "constant": true,
      "inputs": [],
      "name": "totalSupply",
      "outputs": [
        {
          "name": "",
          "type": "uint256"
        }
      ],
      "payable": false,
      "stateMutability": "view",
      "type": "function"
    },
    {
      "constant": false,
      "inputs": [
        {
          "name": "sender",
          "type": "address"
        },
        {
          "name": "recipient",
          "type": "address"
        },
        {
          "name": "amount",
          "type": "uint256"
        }
      ],
      "name": "transferFrom",
      "outputs": [
        {
          "name": "",
          "type": "bool"
        }
      ],
      "payable": false,
      "stateMutability": "nonpayable",
      "type": "function"
    },
    {
      "constant": false,
      "inputs": [
        {
          "name": "recipient",
          "type": "address"
        },
        {
          "name": "amount",
          "type": "uint256"
        }
      ],
      "name": "safeTransfer",
      "outputs": [],
      "payable": false,
      "stateMutability": "nonpayable",
      "type": "function"
    },
    {
      "constant": false,
      "inputs": [
        {
          "name": "sender",
          "type": "address"
        },
        {
          "name": "recipient",
          "type": "address"
        },
        {
          "name": "amount",
          "type": "uint256"
        }
      ],
      "name": "safeTransferFrom",
      "outputs": [],
      "payable": false,
      "stateMutability": "nonpayable",
      "type": "function"
    },
    {
      "constant": true,
      "inputs": [
        {
          "name": "account",
          "type": "address"
        }
      ],
      "name": "balanceOf",
      "outputs": [
        {
          "name": "",
          "type": "uint256"
        }
      ],
      "payable": false,
      "stateMutability": "view",
      "type": "function"
    },
    {
      "constant": false,
      "inputs": [
        {
          "name": "recipient",
          "type": "address"
        },
        {
          "name": "amount",
          "type": "uint256"
        }
      ],
      "name": "transfer",
      "outputs": [
        {
          "name": "",
          "type": "bool"
        }
      ],
      "payable": false,
      "stateMutability": "nonpayable",
      "type": "function"
    },
    {
      "constant": false,
      "inputs": [
        {
          "name": "sender",
          "type": "address"
        },
        {
          "name": "recipient",
          "type": "address"
        },
        {
          "name": "amount",
          "type": "uint256"
        },
        {
          "name": "",
          "type": "bytes"
        }
      ],
      "name": "safeTransferFrom",
      "outputs": [],
      "payable": false,
      "stateMutability": "nonpayable",
      "type": "function"
    },
    {
      "constant": true,
      "inputs": [
        {
          "name": "owner",
          "type": "address"
        },
        {
          "name": "spender",
          "type": "address"
        }
      ],
      "name": "allowance",
      "outputs": [
        {
          "name": "",
          "type": "uint256"
        }
      ],
      "payable": false,
      "stateMutability": "view",
      "type": "function"
    },
    {
      "constant": false,
      "inputs": [
        {
          "name": "recipient",
          "type": "address"
        },
        {
          "name": "amount",
          "type": "uint256"
        },
        {
          "name": "",
          "type": "bytes"
        }
      ],
      "name": "safeTransfer",
      "outputs": [],
      "payable": false,
      "stateMutability": "nonpayable",
      "type": "function"
    },
    {
      "inputs": [
        {
          "name": "name",
          "type": "string"
        },
        {
          "name": "symbol",
          "type": "string"
        },
        {
          "name": "decimals",
          "type": "uint8"
        }
      ],
      "payable": false,
      "stateMutability": "nonpayable",
      "type": "constructor"
    },
    {
      "anonymous": false,
      "inputs": [
        {
          "indexed": true,
          "name": "from",
          "type": "address"
        },
        {
          "indexed": true,
          "name": "to",
          "type": "address"
        },
        {
          "indexed": false,
          "name": "value",
          "type": "uint256"
        }
      ],
      "name": "Transfer",
      "type": "event"
    },
    {
      "anonymous": false,
      "inputs": [
        {
          "indexed": true,
          "name": "owner",
          "type": "address"
        },
        {
          "indexed": true,
          "name": "spender",
          "type": "address"
        },
        {
          "indexed": false,
          "name": "value",
          "type": "uint256"
        }
      ],
      "name": "Approval",
      "type": "event"
    }
  ],
  "bytecode": "0x608060405234801561001057600080fd5b50604051610a72380380610a728339810180604052606081101561003357600080fd5b81019080805164010000000081111561004b57600080fd5b8201602081018481111561005e57600080fd5b815164010000000081118282018710171561007857600080fd5b5050929190602001805164010000000081111561009457600080fd5b820160208101848111156100a757600080fd5b81516401000000008111828201871017156100c157600080fd5b5050602091820151855191945092506100e09160039190860190610111565b5081516100f4906004906020850190610111565b506005805460ff191660ff92909216919091179055506101ac9050565b828054600181600116156101000203166002900490600052602060002090601f016020900481019282601f1061015257805160ff191683800117855561017f565b8280016001018555821561017f579182015b8281111561017f578251825591602001919060010190610164565b5061018b92915061018f565b5090565b6101a991905b8082111561018b5760008155600101610195565b90565b6108b7806101bb6000396000f3fe608060405234801561001057600080fd5b50600436106100a95760003560e01c806342842e0e1161007157806342842e0e1461019357806370a08231146101c9578063a9059cbb146101ef578063b88d4fde1461021b578063dd62ed3e146102e1578063eb7955491461030f576100a9565b806301ffc9a7146100ae578063095ea7b3146100e957806318160ddd1461011557806323b872dd1461012f578063423f6cef14610165575b600080fd5b6100d5600480360360208110156100c457600080fd5b50356001600160e01b0319166103ca565b604080519115158252519081900360200190f35b6100d5600480360360408110156100ff57600080fd5b506001600160a01b0381351690602001356103d0565b61011d6103e6565b60408051918252519081900360200190f35b6100d56004803603606081101561014557600080fd5b506001600160a01b038135811691602081013590911690604001356103ec565b6101916004803603604081101561017b57600080fd5b506001600160a01b038135169060200135610443565b005b610191600480360360608110156101a957600080fd5b506001600160a01b03813581169160208101359091169060400135610461565b61011d600480360360208110156101df57600080fd5b50356001600160a01b0316610481565b6100d56004803603604081101561020557600080fd5b506001600160a01b03813516906020013561049c565b6101916004803603608081101561023157600080fd5b6001600160a01b0382358116926020810135909116916040820135919081019060808101606082013564010000000081111561026c57600080fd5b82018360208201111561027e57600080fd5b803590602001918460018302840111640100000000831117156102a057600080fd5b91908080601f0160208091040260200160405190810160405280939291908181526020018383808284376000920191909152509295506104a9945050505050565b61011d600480360360408110156102f757600080fd5b506001600160a01b03813581169160200135166104bb565b6101916004803603606081101561032557600080fd5b6001600160a01b038235169160208101359181019060608101604082013564010000000081111561035557600080fd5b82018360208201111561036757600080fd5b8035906020019184600183028401116401000000008311171561038957600080fd5b91908080601f0160208091040260200160405190810160405280939291908181526020018383808284376000920191909152509295506104e6945050505050565b50600190565b60006103dd3384846104f6565b50600192915050565b60025490565b60006103f98484846105b2565b6001600160a01b038416600090815260016020908152604080832033808552925290912054610439918691610434908663ffffffff6106c116565b6104f6565b5060019392505050565b61045d8282604051806020016040528060008152506104e6565b5050565b61047c838383604051806020016040528060008152506104a9565b505050565b6001600160a01b031660009081526020819052604090205490565b60006103dd3384846105b2565b6104b48484846103ec565b5050505050565b6001600160a01b03918216600090815260016020908152604080832093909416825291909152205490565b6104f0838361049c565b50505050565b6001600160a01b03831661053e57604051600160e51b62461bcd0281526004018080602001828103825260238152602001806108696023913960400191505060405180910390fd5b6001600160a01b03821661058657604051600160e51b62461bcd0281526004018080602001828103825260218152602001806108026021913960400191505060405180910390fd5b6001600160a01b0392831660009081526001602090815260408083209490951682529290925291902055565b6001600160a01b0383166105fa57604051600160e51b62461bcd0281526004018080602001828103825260248152602001806108456024913960400191505060405180910390fd5b6001600160a01b03821661064257604051600160e51b62461bcd0281526004018080602001828103825260228152602001806108236022913960400191505060405180910390fd5b6001600160a01b03831660009081526020819052604090205461066b908263ffffffff6106c116565b6001600160a01b0380851660009081526020819052604080822093909355908416815220546106a0908263ffffffff61070a16565b6001600160a01b039092166000908152602081905260409020919091555050565b600061070383836040518060400160405280601e81526020017f536166654d6174683a207375627472616374696f6e206f766572666c6f770000815250610767565b9392505050565b6000828201838110156107035760408051600160e51b62461bcd02815260206004820152601b60248201527f536166654d6174683a206164646974696f6e206f766572666c6f770000000000604482015290519081900360640190fd5b600081848411156107f957604051600160e51b62461bcd0281526004018080602001828103825283818151815260200191508051906020019080838360005b838110156107be5781810151838201526020016107a6565b50505050905090810190601f1680156107eb5780820380516001836020036101000a031916815260200191505b509250505060405180910390fd5b50505090039056fe4b4950373a20617070726f766520746f20746865207a65726f20616464726573734b4950373a207472616e7366657220746f20746865207a65726f20616464726573734b4950373a207472616e736665722066726f6d20746865207a65726f20616464726573734b4950373a20617070726f76652066726f6d20746865207a65726f2061646472657373a165627a7a72305820ca9a17cfb96e4169933b02401ac540965e60526d0086c7eedd2eee9c5318fb700029",
  "linkReferences": {},
  "deployedLinkReferences": {}
}