{
  "_format": "hh-sol-artifact-1",
  "contractName": "GaiaBuyBackFund",
  "sourceName": "contracts/GaiaBuyBackFund.sol",
  "abi": [
    {
      "constant": false,
      "inputs": [
        {
          "name": "token",
          "type": "address"
        },
        {
          "name": "recipient",
          "type": "address"
        },
        {
          "name": "amount",
          "type": "uint256"
        }
      ],
      "name": "withdrawToken",
      "outputs": [],
      "payable": false,
      "stateMutability": "nonpayable",
      "type": "function"
    },
    {
      "constant": false,
      "inputs": [
        {
          "name": "ids",
          "type": "uint256[]"
        },
        {
          "name": "recipient",
          "type": "address"
        }
      ],
      "name": "withdrawGaiaNFT",
      "outputs": [],
      "payable": false,
      "stateMutability": "nonpayable",
      "type": "function"
    },
    {
      "constant": false,
      "inputs": [],
      "name": "closeBuyBack",
      "outputs": [],
      "payable": false,
      "stateMutability": "nonpayable",
      "type": "function"
    },
    {
      "constant": false,
      "inputs": [],
      "name": "renounceOwnership",
      "outputs": [],
      "payable": false,
      "stateMutability": "nonpayable",
      "type": "function"
    },
    {
      "constant": false,
      "inputs": [
        {
          "name": "recipient",
          "type": "address"
        },
        {
          "name": "amount",
          "type": "uint256"
        }
      ],
      "name": "withdrawKlay",
      "outputs": [],
      "payable": false,
      "stateMutability": "nonpayable",
      "type": "function"
    },
    {
      "constant": true,
      "inputs": [],
      "name": "refundableKlay",
      "outputs": [
        {
          "name": "",
          "type": "uint256"
        }
      ],
      "payable": false,
      "stateMutability": "view",
      "type": "function"
    },
    {
      "constant": true,
      "inputs": [],
      "name": "owner",
      "outputs": [
        {
          "name": "",
          "type": "address"
        }
      ],
      "payable": false,
      "stateMutability": "view",
      "type": "function"
    },
    {
      "constant": true,
      "inputs": [],
      "name": "isOwner",
      "outputs": [
        {
          "name": "",
          "type": "bool"
        }
      ],
      "payable": false,
      "stateMutability": "view",
      "type": "function"
    },
    {
      "constant": false,
      "inputs": [
        {
          "name": "ids",
          "type": "uint256[]"
        }
      ],
      "name": "sellGaiaNFT",
      "outputs": [],
      "payable": false,
      "stateMutability": "nonpayable",
      "type": "function"
    },
    {
      "constant": true,
      "inputs": [],
      "name": "gaiaNFT",
      "outputs": [
        {
          "name": "",
          "type": "address"
        }
      ],
      "payable": false,
      "stateMutability": "view",
      "type": "function"
    },
    {
      "constant": true,
      "inputs": [],
      "name": "buyBack",
      "outputs": [
        {
          "name": "",
          "type": "bool"
        }
      ],
      "payable": false,
      "stateMutability": "view",
      "type": "function"
    },
    {
      "constant": true,
      "inputs": [],
      "name": "gaiaOperation",
      "outputs": [
        {
          "name": "",
          "type": "address"
        }
      ],
      "payable": false,
      "stateMutability": "view",
      "type": "function"
    },
    {
      "constant": false,
      "inputs": [
        {
          "name": "newGaiaOperation",
          "type": "address"
        }
      ],
      "name": "updateGaiaOperation",
      "outputs": [],
      "payable": false,
      "stateMutability": "nonpayable",
      "type": "function"
    },
    {
      "constant": false,
      "inputs": [
        {
          "name": "newOwner",
          "type": "address"
        }
      ],
      "name": "transferOwnership",
      "outputs": [],
      "payable": false,
      "stateMutability": "nonpayable",
      "type": "function"
    },
    {
      "inputs": [
        {
          "name": "_gaiaNFT",
          "type": "address"
        },
        {
          "name": "_gaiaOperation",
          "type": "address"
        }
      ],
      "payable": false,
      "stateMutability": "nonpayable",
      "type": "constructor"
    },
    {
      "payable": true,
      "stateMutability": "payable",
      "type": "fallback"
    },
    {
      "anonymous": false,
      "inputs": [],
      "name": "CloseBuyBack",
      "type": "event"
    },
    {
      "anonymous": false,
      "inputs": [
        {
          "indexed": true,
          "name": "recipient",
          "type": "address"
        },
        {
          "indexed": false,
          "name": "amount",
          "type": "uint256"
        }
      ],
      "name": "WithdrawKlay",
      "type": "event"
    },
    {
      "anonymous": false,
      "inputs": [
        {
          "indexed": true,
          "name": "id",
          "type": "uint256"
        },
        {
          "indexed": true,
          "name": "seller",
          "type": "address"
        },
        {
          "indexed": false,
          "name": "refundedKlay",
          "type": "uint256"
        }
      ],
      "name": "Sell",
      "type": "event"
    },
    {
      "anonymous": false,
      "inputs": [
        {
          "indexed": false,
          "name": "newGaiaOperation",
          "type": "address"
        }
      ],
      "name": "UpdateGaiaOperation",
      "type": "event"
    },
    {
      "anonymous": false,
      "inputs": [
        {
          "indexed": true,
          "name": "previousOwner",
          "type": "address"
        },
        {
          "indexed": true,
          "name": "newOwner",
          "type": "address"
        }
      ],
      "name": "OwnershipTransferred",
      "type": "event"
    }
  ],
  "bytecode": "0x608060405260028054600160a01b60ff0219167401000000000000000000000000000000000000000017905534801561003757600080fd5b506040516040806112048339810180604052604081101561005757600080fd5b508051602090910151600080546001600160a01b03191633178082556040516001600160a01b039190911691907f8be0079c531659141344cd1fd0a4f28419497f9722a3daafe3b4186f6b6457e0908290a3600180546001600160a01b039384166001600160a01b03199182161790915560028054929093169116179055611120806100e46000396000f3fe6080604052600436106100dd5760003560e01c80638f32d59b1161007f578063acdf4f1811610059578063acdf4f181461031e578063d32a5bb314610333578063d7bb8fed14610348578063f2fde38b1461037b576100dd565b80638f32d59b14610263578063959567791461028c5780639d18abe014610309576100dd565b8063715018a6116100bb578063715018a6146101bd57806376332348146101d25780638513d65e1461020b5780638da5cb5b14610232576100dd565b806301e33667146100df5780630fc5efb31461012257806348050a7b146101a8575b005b3480156100eb57600080fd5b506100dd6004803603606081101561010257600080fd5b506001600160a01b038135811691602081013590911690604001356103ae565b34801561012e57600080fd5b506100dd6004803603604081101561014557600080fd5b81019060208101813564010000000081111561016057600080fd5b82018360208201111561017257600080fd5b8035906020019184602083028401116401000000008311171561019457600080fd5b9193509150356001600160a01b0316610562565b3480156101b457600080fd5b506100dd610657565b3480156101c957600080fd5b506100dd610823565b3480156101de57600080fd5b506100dd600480360360408110156101f557600080fd5b506001600160a01b0381351690602001356108b7565b34801561021757600080fd5b506102206109db565b60408051918252519081900360200190f35b34801561023e57600080fd5b50610247610a9c565b604080516001600160a01b039092168252519081900360200190f35b34801561026f57600080fd5b50610278610aab565b604080519115158252519081900360200190f35b34801561029857600080fd5b506100dd600480360360208110156102af57600080fd5b8101906020810181356401000000008111156102ca57600080fd5b8201836020820111156102dc57600080fd5b803590602001918460208302840111640100000000831117156102fe57600080fd5b509092509050610abc565b34801561031557600080fd5b50610247610d11565b34801561032a57600080fd5b50610278610d20565b34801561033f57600080fd5b50610247610d30565b34801561035457600080fd5b506100dd6004803603602081101561036b57600080fd5b50356001600160a01b0316610d3f565b34801561038757600080fd5b506100dd6004803603602081101561039e57600080fd5b50356001600160a01b0316610e34565b6103b6610aab565b6103f85760408051600160e51b62461bcd02815260206004820181905260248201526000805160206110d5833981519152604482015290519081900360640190fd5b6001600160a01b0382166104495760408051600160e51b62461bcd02815260206004820152600d6024820152600160981b6c57524f4e475f4144445245535302604482015290519081900360640190fd5b60408051600160e01b6370a0823102815230600482015290516000916001600160a01b038616916370a0823191602480820192602092909190829003018186803b15801561049657600080fd5b505afa1580156104aa573d6000803e3d6000fd5b505050506040513d60208110156104c057600080fd5b50519050808211156104d0578091505b836001600160a01b031663a9059cbb84846040518363ffffffff1660e01b815260040180836001600160a01b03166001600160a01b0316815260200182815260200192505050602060405180830381600087803b15801561053057600080fd5b505af1158015610544573d6000803e3d6000fd5b505050506040513d602081101561055a57600080fd5b505050505050565b61056a610aab565b6105ac5760408051600160e51b62461bcd02815260206004820181905260248201526000805160206110d5833981519152604482015290519081900360640190fd5b600154604051600160e01b63f3993d1102815230600482018181526001600160a01b0385811660248501526060604485019081526064850188905294169363f3993d1193869289928992608401846020850280828437600081840152601f19601f82011690508083019250505095505050505050600060405180830381600087803b15801561063a57600080fd5b505af115801561064e573d6000803e3d6000fd5b50505050505050565b61065f610aab565b6106a15760408051600160e51b62461bcd02815260206004820181905260248201526000805160206110d5833981519152604482015290519081900360640190fd5b600254600160a01b900460ff166107025760408051600160e51b62461bcd02815260206004820152600d60248201527f414c52454144595f454e44454400000000000000000000000000000000000000604482015290519081900360640190fd5b600260009054906101000a90046001600160a01b03166001600160a01b031663ef7c66476040518163ffffffff1660e01b815260040160206040518083038186803b15801561075057600080fd5b505afa158015610764573d6000803e3d6000fd5b505050506040513d602081101561077a57600080fd5b5051610784610e8a565b10156107da5760408051600160e51b62461bcd02815260206004820152600f60248201527f554e415641494c41424c455f5945540000000000000000000000000000000000604482015290519081900360640190fd5b6002805474ff0000000000000000000000000000000000000000191690556040517f7eb179c1cc57460855b6eb9749fc5c180cb7bfdd471423ba519e8c7dd78fef5690600090a1565b61082b610aab565b61086d5760408051600160e51b62461bcd02815260206004820181905260248201526000805160206110d5833981519152604482015290519081900360640190fd5b600080546040516001600160a01b03909116907f8be0079c531659141344cd1fd0a4f28419497f9722a3daafe3b4186f6b6457e0908390a3600080546001600160a01b0319169055565b6108bf610aab565b6109015760408051600160e51b62461bcd02815260206004820181905260248201526000805160206110d5833981519152604482015290519081900360640190fd5b6001600160a01b0382166109525760408051600160e51b62461bcd02815260206004820152600d6024820152600160981b6c57524f4e475f4144445245535302604482015290519081900360640190fd5b303180821115610960578091505b6040516001600160a01b0384169083156108fc029084906000818181858888f19350505050158015610996573d6000803e3d6000fd5b506040805183815290516001600160a01b038516917f826f9fe3f257600b1ee672e1599881861bda1bee98a1dc6ca69f65219760dfed919081900360200190a2505050565b600254600090600160a01b900460ff166109f757506000610a99565b6000610a01610e8a565b90506000600260009054906101000a90046001600160a01b03166001600160a01b031663ef7c66476040518163ffffffff1660e01b815260040160206040518083038186803b158015610a5357600080fd5b505afa158015610a67573d6000803e3d6000fd5b505050506040513d6020811015610a7d57600080fd5b5051905080821015610a9157818103610a94565b60005b925050505b90565b6000546001600160a01b031690565b6000546001600160a01b0316331490565b333214610b135760408051600160e51b62461bcd02815260206004820152601160248201527f4f4e4c595f454f415f43414e5f43414c4c000000000000000000000000000000604482015290519081900360640190fd5b600254600160a01b900460ff16610b745760408051600160e51b62461bcd02815260206004820152601060248201527f4255594241434b5f49535f454e44454400000000000000000000000000000000604482015290519081900360640190fd5b6000610b7e6109db565b905060008111610bc65760408051600160e51b62461bcd0281526020600482015260086024820152600160c41b670524546554e445f302604482015290519081900360640190fd5b600154604051600160e01b63f3993d11028152336004820181815230602484018190526060604485019081526064850188905287956001600160a01b03169463f3993d1194938a928892608401846020850280828437600081840152601f19601f82011690508083019250505095505050505050600060405180830381600087803b158015610c5457600080fd5b505af1158015610c68573d6000803e3d6000fd5b503392506108fc9150610c839050848463ffffffff610f8516565b6040518115909202916000818181858888f19350505050158015610cab573d6000803e3d6000fd5b5060005b81811015610d0a5733858583818110610cc457fe5b905060200201357fd80eade75ae9e6851c77c535311c9f41a2dd6fba19e375235116c09f0810c128856040518082815260200191505060405180910390a3600101610caf565b5050505050565b6001546001600160a01b031681565b600254600160a01b900460ff1681565b6002546001600160a01b031681565b610d47610aab565b610d895760408051600160e51b62461bcd02815260206004820181905260248201526000805160206110d5833981519152604482015290519081900360640190fd5b6002546001600160a01b0382811691161415610de05760408051600160e51b62461bcd02815260206004820152600b6024820152600160aa1b6a1393d517d0d2105391d15102604482015290519081900360640190fd5b600280546001600160a01b0383166001600160a01b0319909116811790915560408051918252517fea68326616526002c6586d10bed3db2a0a95cbfcd67e3cccc07ea345ea02e6f69181900360200190a150565b610e3c610aab565b610e7e5760408051600160e51b62461bcd02815260206004820181905260248201526000805160206110d5833981519152604482015290519081900360640190fd5b610e8781610fea565b50565b6040805160018082528183019092526000916060919060208083019080388339019050509050600081600081518110610ebf57fe5b602090810291909101810191909152600254604051600160e11b630b71796b028152600481018381528451602483015284516001600160a01b03909316936316e2f2d69386938392604490910191858201910280838360005b83811015610f30578181015183820152602001610f18565b505050509050019250505060206040518083038186803b158015610f5357600080fd5b505afa158015610f67573d6000803e3d6000fd5b505050506040513d6020811015610f7d57600080fd5b505191505090565b600082610f9457506000610fe4565b82820282848281610fa157fe5b0414610fe157604051600160e51b62461bcd0281526004018080602001828103825260218152602001806110b46021913960400191505060405180910390fd5b90505b92915050565b6001600160a01b03811661103257604051600160e51b62461bcd02815260040180806020018281038252602681526020018061108e6026913960400191505060405180910390fd5b600080546040516001600160a01b03808516939216917f8be0079c531659141344cd1fd0a4f28419497f9722a3daafe3b4186f6b6457e091a3600080546001600160a01b0319166001600160a01b039290921691909117905556fe4f776e61626c653a206e6577206f776e657220697320746865207a65726f2061646472657373536166654d6174683a206d756c7469706c69636174696f6e206f766572666c6f774f776e61626c653a2063616c6c6572206973206e6f7420746865206f776e6572a165627a7a7230582050ab9a92a33c6eab5aa2c0f8098e2f4b7b3ea49337c8929d6a530b3b4d38e6070029",
  "linkReferences": {},
  "deployedLinkReferences": {}
}