{
  "_format": "hh-sol-artifact-1",
  "contractName": "GaiaNFT",
  "sourceName": "contracts/GaiaNFT.sol",
  "abi": [
    {
      "constant": true,
      "inputs": [
        {
          "name": "interfaceId",
          "type": "bytes4"
        }
      ],
      "name": "supportsInterface",
      "outputs": [
        {
          "name": "",
          "type": "bool"
        }
      ],
      "payable": false,
      "stateMutability": "view",
      "type": "function"
    },
    {
      "constant": false,
      "inputs": [
        {
          "name": "from",
          "type": "address"
        },
        {
          "name": "to",
          "type": "address"
        },
        {
          "name": "tokenIds",
          "type": "uint256[]"
        }
      ],
      "name": "safeBatchTransferFrom",
      "outputs": [],
      "payable": false,
      "stateMutability": "nonpayable",
      "type": "function"
    },
    {
      "constant": true,
      "inputs": [],
      "name": "name",
      "outputs": [
        {
          "name": "",
          "type": "string"
        }
      ],
      "payable": false,
      "stateMutability": "view",
      "type": "function"
    },
    {
      "constant": true,
      "inputs": [
        {
          "name": "tokenId",
          "type": "uint256"
        }
      ],
      "name": "getApproved",
      "outputs": [
        {
          "name": "",
          "type": "address"
        }
      ],
      "payable": false,
      "stateMutability": "view",
      "type": "function"
    },
    {
      "constant": false,
      "inputs": [
        {
          "name": "to",
          "type": "address"
        },
        {
          "name": "tokenId",
          "type": "uint256"
        }
      ],
      "name": "approve",
      "outputs": [],
      "payable": false,
      "stateMutability": "nonpayable",
      "type": "function"
    },
    {
      "constant": true,
      "inputs": [],
      "name": "totalSupply",
      "outputs": [
        {
          "name": "",
          "type": "uint256"
        }
      ],
      "payable": false,
      "stateMutability": "view",
      "type": "function"
    },
    {
      "constant": false,
      "inputs": [
        {
          "name": "from",
          "type": "address"
        },
        {
          "name": "to",
          "type": "address"
        },
        {
          "name": "tokenId",
          "type": "uint256"
        }
      ],
      "name": "transferFrom",
      "outputs": [],
      "payable": false,
      "stateMutability": "nonpayable",
      "type": "function"
    },
    {
      "constant": false,
      "inputs": [
        {
          "name": "to",
          "type": "address"
        },
        {
          "name": "fromId",
          "type": "uint256"
        },
        {
          "name": "amount",
          "type": "uint256"
        }
      ],
      "name": "mintBatch",
      "outputs": [],
      "payable": false,
      "stateMutability": "nonpayable",
      "type": "function"
    },
    {
      "constant": true,
      "inputs": [
        {
          "name": "owner",
          "type": "address"
        },
        {
          "name": "index",
          "type": "uint256"
        }
      ],
      "name": "tokenOfOwnerByIndex",
      "outputs": [
        {
          "name": "",
          "type": "uint256"
        }
      ],
      "payable": false,
      "stateMutability": "view",
      "type": "function"
    },
    {
      "constant": false,
      "inputs": [],
      "name": "unpause",
      "outputs": [],
      "payable": false,
      "stateMutability": "nonpayable",
      "type": "function"
    },
    {
      "constant": false,
      "inputs": [
        {
          "name": "to",
          "type": "address"
        },
        {
          "name": "tokenId",
          "type": "uint256"
        }
      ],
      "name": "mint",
      "outputs": [
        {
          "name": "",
          "type": "bool"
        }
      ],
      "payable": false,
      "stateMutability": "nonpayable",
      "type": "function"
    },
    {
      "constant": false,
      "inputs": [
        {
          "name": "from",
          "type": "address"
        },
        {
          "name": "to",
          "type": "address"
        },
        {
          "name": "tokenId",
          "type": "uint256"
        }
      ],
      "name": "safeTransferFrom",
      "outputs": [],
      "payable": false,
      "stateMutability": "nonpayable",
      "type": "function"
    },
    {
      "constant": true,
      "inputs": [
        {
          "name": "account",
          "type": "address"
        }
      ],
      "name": "isPauser",
      "outputs": [
        {
          "name": "",
          "type": "bool"
        }
      ],
      "payable": false,
      "stateMutability": "view",
      "type": "function"
    },
    {
      "constant": true,
      "inputs": [
        {
          "name": "index",
          "type": "uint256"
        }
      ],
      "name": "tokenByIndex",
      "outputs": [
        {
          "name": "",
          "type": "uint256"
        }
      ],
      "payable": false,
      "stateMutability": "view",
      "type": "function"
    },
    {
      "constant": false,
      "inputs": [
        {
          "name": "_baseURI",
          "type": "string"
        }
      ],
      "name": "setBaseURI",
      "outputs": [],
      "payable": false,
      "stateMutability": "nonpayable",
      "type": "function"
    },
    {
      "constant": true,
      "inputs": [],
      "name": "paused",
      "outputs": [
        {
          "name": "",
          "type": "bool"
        }
      ],
      "payable": false,
      "stateMutability": "view",
      "type": "function"
    },
    {
      "constant": true,
      "inputs": [
        {
          "name": "tokenId",
          "type": "uint256"
        }
      ],
      "name": "ownerOf",
      "outputs": [
        {
          "name": "",
          "type": "address"
        }
      ],
      "payable": false,
      "stateMutability": "view",
      "type": "function"
    },
    {
      "constant": true,
      "inputs": [],
      "name": "baseURI",
      "outputs": [
        {
          "name": "",
          "type": "string"
        }
      ],
      "payable": false,
      "stateMutability": "view",
      "type": "function"
    },
    {
      "constant": false,
      "inputs": [],
      "name": "renouncePauser",
      "outputs": [],
      "payable": false,
      "stateMutability": "nonpayable",
      "type": "function"
    },
    {
      "constant": true,
      "inputs": [
        {
          "name": "owner",
          "type": "address"
        }
      ],
      "name": "balanceOf",
      "outputs": [
        {
          "name": "",
          "type": "uint256"
        }
      ],
      "payable": false,
      "stateMutability": "view",
      "type": "function"
    },
    {
      "constant": false,
      "inputs": [],
      "name": "renounceOwnership",
      "outputs": [],
      "payable": false,
      "stateMutability": "nonpayable",
      "type": "function"
    },
    {
      "constant": false,
      "inputs": [
        {
          "name": "account",
          "type": "address"
        }
      ],
      "name": "addPauser",
      "outputs": [],
      "payable": false,
      "stateMutability": "nonpayable",
      "type": "function"
    },
    {
      "constant": false,
      "inputs": [],
      "name": "pause",
      "outputs": [],
      "payable": false,
      "stateMutability": "nonpayable",
      "type": "function"
    },
    {
      "constant": true,
      "inputs": [],
      "name": "owner",
      "outputs": [
        {
          "name": "",
          "type": "address"
        }
      ],
      "payable": false,
      "stateMutability": "view",
      "type": "function"
    },
    {
      "constant": true,
      "inputs": [],
      "name": "isOwner",
      "outputs": [
        {
          "name": "",
          "type": "bool"
        }
      ],
      "payable": false,
      "stateMutability": "view",
      "type": "function"
    },
    {
      "constant": true,
      "inputs": [],
      "name": "symbol",
      "outputs": [
        {
          "name": "",
          "type": "string"
        }
      ],
      "payable": false,
      "stateMutability": "view",
      "type": "function"
    },
    {
      "constant": false,
      "inputs": [
        {
          "name": "account",
          "type": "address"
        }
      ],
      "name": "addMinter",
      "outputs": [],
      "payable": false,
      "stateMutability": "nonpayable",
      "type": "function"
    },
    {
      "constant": false,
      "inputs": [],
      "name": "renounceMinter",
      "outputs": [],
      "payable": false,
      "stateMutability": "nonpayable",
      "type": "function"
    },
    {
      "constant": false,
      "inputs": [
        {
          "name": "to",
          "type": "address"
        },
        {
          "name": "approved",
          "type": "bool"
        }
      ],
      "name": "setApprovalForAll",
      "outputs": [],
      "payable": false,
      "stateMutability": "nonpayable",
      "type": "function"
    },
    {
      "constant": true,
      "inputs": [
        {
          "name": "account",
          "type": "address"
        }
      ],
      "name": "isMinter",
      "outputs": [
        {
          "name": "",
          "type": "bool"
        }
      ],
      "payable": false,
      "stateMutability": "view",
      "type": "function"
    },
    {
      "constant": false,
      "inputs": [
        {
          "name": "_symbol",
          "type": "string"
        }
      ],
      "name": "setSymbol",
      "outputs": [],
      "payable": false,
      "stateMutability": "nonpayable",
      "type": "function"
    },
    {
      "constant": false,
      "inputs": [
        {
          "name": "from",
          "type": "address"
        },
        {
          "name": "to",
          "type": "address"
        },
        {
          "name": "tokenId",
          "type": "uint256"
        },
        {
          "name": "_data",
          "type": "bytes"
        }
      ],
      "name": "safeTransferFrom",
      "outputs": [],
      "payable": false,
      "stateMutability": "nonpayable",
      "type": "function"
    },
    {
      "constant": false,
      "inputs": [
        {
          "name": "_name",
          "type": "string"
        }
      ],
      "name": "setName",
      "outputs": [],
      "payable": false,
      "stateMutability": "nonpayable",
      "type": "function"
    },
    {
      "constant": true,
      "inputs": [
        {
          "name": "tokenId",
          "type": "uint256"
        }
      ],
      "name": "tokenURI",
      "outputs": [
        {
          "name": "",
          "type": "string"
        }
      ],
      "payable": false,
      "stateMutability": "view",
      "type": "function"
    },
    {
      "constant": true,
      "inputs": [
        {
          "name": "owner",
          "type": "address"
        },
        {
          "name": "operator",
          "type": "address"
        }
      ],
      "name": "isApprovedForAll",
      "outputs": [
        {
          "name": "",
          "type": "bool"
        }
      ],
      "payable": false,
      "stateMutability": "view",
      "type": "function"
    },
    {
      "constant": false,
      "inputs": [
        {
          "name": "newOwner",
          "type": "address"
        }
      ],
      "name": "transferOwnership",
      "outputs": [],
      "payable": false,
      "stateMutability": "nonpayable",
      "type": "function"
    },
    {
      "constant": false,
      "inputs": [
        {
          "name": "from",
          "type": "address"
        },
        {
          "name": "to",
          "type": "address"
        },
        {
          "name": "tokenIds",
          "type": "uint256[]"
        }
      ],
      "name": "batchTransferFrom",
      "outputs": [],
      "payable": false,
      "stateMutability": "nonpayable",
      "type": "function"
    },
    {
      "inputs": [],
      "payable": false,
      "stateMutability": "nonpayable",
      "type": "constructor"
    },
    {
      "anonymous": false,
      "inputs": [
        {
          "indexed": false,
          "name": "name",
          "type": "string"
        }
      ],
      "name": "SetName",
      "type": "event"
    },
    {
      "anonymous": false,
      "inputs": [
        {
          "indexed": false,
          "name": "symbol",
          "type": "string"
        }
      ],
      "name": "SetSymbol",
      "type": "event"
    },
    {
      "anonymous": false,
      "inputs": [
        {
          "indexed": false,
          "name": "baseURI",
          "type": "string"
        }
      ],
      "name": "SetBaseURI",
      "type": "event"
    },
    {
      "anonymous": false,
      "inputs": [
        {
          "indexed": false,
          "name": "account",
          "type": "address"
        }
      ],
      "name": "Paused",
      "type": "event"
    },
    {
      "anonymous": false,
      "inputs": [
        {
          "indexed": false,
          "name": "account",
          "type": "address"
        }
      ],
      "name": "Unpaused",
      "type": "event"
    },
    {
      "anonymous": false,
      "inputs": [
        {
          "indexed": true,
          "name": "account",
          "type": "address"
        }
      ],
      "name": "PauserAdded",
      "type": "event"
    },
    {
      "anonymous": false,
      "inputs": [
        {
          "indexed": true,
          "name": "account",
          "type": "address"
        }
      ],
      "name": "PauserRemoved",
      "type": "event"
    },
    {
      "anonymous": false,
      "inputs": [
        {
          "indexed": true,
          "name": "account",
          "type": "address"
        }
      ],
      "name": "MinterAdded",
      "type": "event"
    },
    {
      "anonymous": false,
      "inputs": [
        {
          "indexed": true,
          "name": "account",
          "type": "address"
        }
      ],
      "name": "MinterRemoved",
      "type": "event"
    },
    {
      "anonymous": false,
      "inputs": [
        {
          "indexed": true,
          "name": "previousOwner",
          "type": "address"
        },
        {
          "indexed": true,
          "name": "newOwner",
          "type": "address"
        }
      ],
      "name": "OwnershipTransferred",
      "type": "event"
    },
    {
      "anonymous": false,
      "inputs": [
        {
          "indexed": true,
          "name": "from",
          "type": "address"
        },
        {
          "indexed": true,
          "name": "to",
          "type": "address"
        },
        {
          "indexed": true,
          "name": "tokenId",
          "type": "uint256"
        }
      ],
      "name": "Transfer",
      "type": "event"
    },
    {
      "anonymous": false,
      "inputs": [
        {
          "indexed": true,
          "name": "owner",
          "type": "address"
        },
        {
          "indexed": true,
          "name": "approved",
          "type": "address"
        },
        {
          "indexed": true,
          "name": "tokenId",
          "type": "uint256"
        }
      ],
      "name": "Approval",
      "type": "event"
    },
    {
      "anonymous": false,
      "inputs": [
        {
          "indexed": true,
          "name": "owner",
          "type": "address"
        },
        {
          "indexed": true,
          "name": "operator",
          "type": "address"
        },
        {
          "indexed": false,
          "name": "approved",
          "type": "bool"
        }
      ],
      "name": "ApprovalForAll",
      "type": "event"
    }
  ],
  "bytecode": "0x60c0604052600b60808190527f47616961204b726f6e6f7300000000000000000000000000000000000000000060a09081526200004091600d919062000489565b506040805180820190915260048082527f474149410000000000000000000000000000000000000000000000000000000060209092019182526200008791600e9162000489565b506040518060600160405280602481526020016200324e602491398051620000b891600f9160209091019062000489565b50348015620000c657600080fd5b50620000df6301ffc9a760e01b620001ef60201b60201c565b620000f76380ac58cd60e01b620001ef60201b60201c565b600580546001600160a01b0319163317908190556040516001600160a01b0391909116906000907f8be0079c531659141344cd1fd0a4f28419497f9722a3daafe3b4186f6b6457e0908290a36200015b63780e9d6360e01b620001ef60201b60201c565b6200016c33620002be60201b60201c565b6200018463eab83e2060e01b620001ef60201b60201c565b62000195336200031060201b60201c565b600c805460ff19169055620001d17f4d5507ff00000000000000000000000000000000000000000000000000000000620001ef602090811b901c565b620001e9635b5e139f60e01b620001ef60201b60201c565b6200052e565b7fffffffff0000000000000000000000000000000000000000000000000000000080821614156200028157604080517f08c379a000000000000000000000000000000000000000000000000000000000815260206004820152601b60248201527f4b495031333a20696e76616c696420696e746572666163652069640000000000604482015290519081900360640190fd5b7fffffffff00000000000000000000000000000000000000000000000000000000166000908152602081905260409020805460ff19166001179055565b620002d981600a6200036260201b620025171790919060201c565b6040516001600160a01b038216907f6ae172837ea30b801fbfcdd4108aa1d5bf8ff775444fd70256b44e6bf3dfc3f690600090a250565b6200032b81600b6200036260201b620025171790919060201c565b6040516001600160a01b038216907f6719d08c1888103bea251a4ed56406bd0c3e69723c8a1686e017e7bbe159b6f890600090a250565b6200037482826200040660201b60201c565b15620003e157604080517f08c379a000000000000000000000000000000000000000000000000000000000815260206004820152601f60248201527f526f6c65733a206163636f756e7420616c72656164792068617320726f6c6500604482015290519081900360640190fd5b6001600160a01b0316600090815260209190915260409020805460ff19166001179055565b60006001600160a01b03821662000469576040517f08c379a0000000000000000000000000000000000000000000000000000000008152600401808060200182810382526022815260200180620032726022913960400191505060405180910390fd5b506001600160a01b03166000908152602091909152604090205460ff1690565b828054600181600116156101000203166002900490600052602060002090601f016020900481019282601f10620004cc57805160ff1916838001178555620004fc565b82800160010185558215620004fc579182015b82811115620004fc578251825591602001919060010190620004df565b506200050a9291506200050e565b5090565b6200052b91905b808211156200050a576000815560010162000515565b90565b612d10806200053e6000396000f3fe608060405234801561001057600080fd5b50600436106102275760003560e01c80636ef8d66d1161013057806398650275116100b8578063c47f00271161007c578063c47f0027146107f8578063c87b56dd14610866578063e985e9c514610883578063f2fde38b146108b1578063f3993d11146108d757610227565b8063986502751461066a578063a22cb46514610672578063aa271e1a146106a0578063b84c8246146106c6578063b88d4fde1461073457610227565b80638456cb59116100ff5780638456cb59146106245780638da5cb5b1461062c5780638f32d59b1461063457806395d89b411461063c578063983b2d561461064457610227565b80636ef8d66d146105c857806370a08231146105d0578063715018a6146105f657806382dc1ec4146105fe57610227565b80633f4ba83a116101b35780634f6ccce7116101825780634f6ccce71461051057806355f804b31461052d5780635c975abb1461059b5780636352211e146105a35780636c0360eb146105c057610227565b80633f4ba83a1461048057806340c10f191461048857806342842e0e146104b457806346fbf68e146104ea57610227565b8063095ea7b3116101fa578063095ea7b3146103a657806318160ddd146103d257806323b872dd146103ec5780632e81aaea146104225780632f745c591461045457610227565b806301ffc9a71461022c578063034601ec1461026757806306fdde03146102f0578063081812fc1461036d575b600080fd5b6102536004803603602081101561024257600080fd5b50356001600160e01b03191661095e565b604080519115158252519081900360200190f35b6102ee6004803603606081101561027d57600080fd5b6001600160a01b038235811692602081013590911691810190606081016040820135600160201b8111156102b057600080fd5b8201836020820111156102c257600080fd5b803590602001918460208302840111600160201b831117156102e357600080fd5b509092509050610981565b005b6102f8610a44565b6040805160208082528351818301528351919283929083019185019080838360005b8381101561033257818101518382015260200161031a565b50505050905090810190601f16801561035f5780820380516001836020036101000a031916815260200191505b509250505060405180910390f35b61038a6004803603602081101561038357600080fd5b5035610ad2565b604080516001600160a01b039092168252519081900360200190f35b6102ee600480360360408110156103bc57600080fd5b506001600160a01b038135169060200135610b37565b6103da610b8e565b60408051918252519081900360200190f35b6102ee6004803603606081101561040257600080fd5b506001600160a01b03813581169160208101359091169060400135610b95565b6102ee6004803603606081101561043857600080fd5b506001600160a01b038135169060208101359060400135610bee565b6103da6004803603604081101561046a57600080fd5b506001600160a01b038135169060200135610ce9565b6102ee610d6b565b6102536004803603604081101561049e57600080fd5b506001600160a01b038135169060200135610e4b565b6102ee600480360360608110156104ca57600080fd5b506001600160a01b03813581169160208101359091169060400135610ea7565b6102536004803603602081101561050057600080fd5b50356001600160a01b0316610ec2565b6103da6004803603602081101561052657600080fd5b5035610edb565b6102ee6004803603602081101561054357600080fd5b810190602081018135600160201b81111561055d57600080fd5b82018360208201111561056f57600080fd5b803590602001918460018302840111600160201b8311171561059057600080fd5b509092509050610f44565b610253610fff565b61038a600480360360208110156105b957600080fd5b5035611008565b6102f861105f565b6102ee6110ba565b6103da600480360360208110156105e657600080fd5b50356001600160a01b03166110c5565b6102ee611130565b6102ee6004803603602081101561061457600080fd5b50356001600160a01b03166111c4565b6102ee611217565b61038a6112e9565b6102536112f8565b6102f8611309565b6102ee6004803603602081101561065a57600080fd5b50356001600160a01b0316611364565b6102ee6113b4565b6102ee6004803603604081101561068857600080fd5b506001600160a01b03813516906020013515156113bd565b610253600480360360208110156106b657600080fd5b50356001600160a01b0316611410565b6102ee600480360360208110156106dc57600080fd5b810190602081018135600160201b8111156106f657600080fd5b82018360208201111561070857600080fd5b803590602001918460018302840111600160201b8311171561072957600080fd5b509092509050611423565b6102ee6004803603608081101561074a57600080fd5b6001600160a01b03823581169260208101359091169160408201359190810190608081016060820135600160201b81111561078457600080fd5b82018360208201111561079657600080fd5b803590602001918460018302840111600160201b831117156107b757600080fd5b91908080601f0160208091040260200160405190810160405280939291908181526020018383808284376000920191909152509295506114de945050505050565b6102ee6004803603602081101561080e57600080fd5b810190602081018135600160201b81111561082857600080fd5b82018360208201111561083a57600080fd5b803590602001918460018302840111600160201b8311171561085b57600080fd5b509092509050611533565b6102f86004803603602081101561087c57600080fd5b50356115ee565b6102536004803603604081101561089957600080fd5b506001600160a01b0381358116916020013516611859565b6102ee600480360360208110156108c757600080fd5b50356001600160a01b0316611887565b6102ee600480360360608110156108ed57600080fd5b6001600160a01b038235811692602081013590911691810190606081016040820135600160201b81111561092057600080fd5b82018360208201111561093257600080fd5b803590602001918460208302840111600160201b8311171561095357600080fd5b5090925090506118da565b6001600160e01b0319811660009081526020819052604090205460ff165b919050565b600c5460ff16156109ca5760408051600160e51b62461bcd0281526020600482015260106024820152600080516020612be5833981519152604482015290519081900360640190fd5b80610a0d5760408051600160e51b62461bcd0281526020600482015260086024820152600160c41b6704c454e4754485f302604482015290519081900360640190fd5b60005b81811015610a3d57610a358585858585818110610a2957fe5b90506020020135610ea7565b600101610a10565b5050505050565b600d805460408051602060026001851615610100026000190190941693909304601f81018490048402820184019092528181529291830182828015610aca5780601f10610a9f57610100808354040283529160200191610aca565b820191906000526020600020905b815481529060010190602001808311610aad57829003601f168201915b505050505081565b6000610add82611996565b610b1b57604051600160e51b62461bcd02815260040180806020018281038252602b815260200180612c58602b913960400191505060405180910390fd5b506000908152600260205260409020546001600160a01b031690565b600c5460ff1615610b805760408051600160e51b62461bcd0281526020600482015260106024820152600080516020612be5833981519152604482015290519081900360640190fd5b610b8a82826119b3565b5050565b6008545b90565b600c5460ff1615610bde5760408051600160e51b62461bcd0281526020600482015260106024820152600080516020612be5833981519152604482015290519081900360640190fd5b610be9838383611ae0565b505050565b610bf733611410565b610c3557604051600160e51b62461bcd028152600401808060200182810382526030815260200180612aa16030913960400191505060405180910390fd5b600c5460ff1615610c7e5760408051600160e51b62461bcd0281526020600482015260106024820152600080516020612be5833981519152604482015290519081900360640190fd5b60008111610cc45760408051600160e51b62461bcd0281526020600482015260086024820152600160c41b670414d4f554e545f302604482015290519081900360640190fd5b60005b81811015610ce357610cdb84828501611b33565b600101610cc7565b50505050565b6000610cf4836110c5565b8210610d3457604051600160e51b62461bcd02815260040180806020018281038252602a815260200180612a77602a913960400191505060405180910390fd5b6001600160a01b0383166000908152600660205260409020805483908110610d5857fe5b9060005260206000200154905092915050565b610d7433610ec2565b610db257604051600160e51b62461bcd0281526004018080602001828103825260308152602001806129fe6030913960400191505060405180910390fd5b600c5460ff16610e0c5760408051600160e51b62461bcd02815260206004820152601460248201527f5061757361626c653a206e6f7420706175736564000000000000000000000000604482015290519081900360640190fd5b600c805460ff191690556040805133815290517f5db9ee0a495bf2e6ff9c91a7834c1ba4fdd244a5e8aa4e537bd38aeae4b073aa9181900360200190a1565b6000610e5633611410565b610e9457604051600160e51b62461bcd028152600401808060200182810382526030815260200180612aa16030913960400191505060405180910390fd5b610e9e8383611b33565b50600192915050565b610be9838383604051806020016040528060008152506114de565b6000610ed5600b8363ffffffff611b5016565b92915050565b6000610ee5610b8e565b8210610f2557604051600160e51b62461bcd02815260040180806020018281038252602b815260200180612c2d602b913960400191505060405180910390fd5b60088281548110610f3257fe5b90600052602060002001549050919050565b610f4c6112f8565b610f8e5760408051600160e51b62461bcd0281526020600482018190526024820152600080516020612b4a833981519152604482015290519081900360640190fd5b610f9a600f8383612917565b507f23c8c9488efebfd474e85a7956de6f39b17c7ab88502d42a623db2d8e382bbaa828260405180806020018281038252848482818152602001925080828437600083820152604051601f909101601f19169092018290039550909350505050a15050565b600c5460ff1690565b6000818152600160205260408120546001600160a01b031680610ed557604051600160e51b62461bcd028152600401808060200182810382526028815260200180612af26028913960400191505060405180910390fd5b600f805460408051602060026001851615610100026000190190941693909304601f81018490048402820184019092528181529291830182828015610aca5780601f10610a9f57610100808354040283529160200191610aca565b6110c333611bba565b565b60006001600160a01b03821661110f57604051600160e51b62461bcd028152600401808060200182810382526029815260200180612bbc6029913960400191505060405180910390fd5b6001600160a01b0382166000908152600360205260409020610ed590611c02565b6111386112f8565b61117a5760408051600160e51b62461bcd0281526020600482018190526024820152600080516020612b4a833981519152604482015290519081900360640190fd5b6005546040516000916001600160a01b0316907f8be0079c531659141344cd1fd0a4f28419497f9722a3daafe3b4186f6b6457e0908390a3600580546001600160a01b0319169055565b6111cd33610ec2565b61120b57604051600160e51b62461bcd0281526004018080602001828103825260308152602001806129fe6030913960400191505060405180910390fd5b61121481611c06565b50565b61122033610ec2565b61125e57604051600160e51b62461bcd0281526004018080602001828103825260308152602001806129fe6030913960400191505060405180910390fd5b600c5460ff16156112a75760408051600160e51b62461bcd0281526020600482015260106024820152600080516020612be5833981519152604482015290519081900360640190fd5b600c805460ff191660011790556040805133815290517f62e78cea01bee320cd4e420270b5ea74000d11b0c9f74754ebdbfc544b05a2589181900360200190a1565b6005546001600160a01b031690565b6005546001600160a01b0316331490565b600e805460408051602060026001851615610100026000190190941693909304601f81018490048402820184019092528181529291830182828015610aca5780601f10610a9f57610100808354040283529160200191610aca565b61136d33611410565b6113ab57604051600160e51b62461bcd028152600401808060200182810382526030815260200180612aa16030913960400191505060405180910390fd5b61121481611c4e565b6110c333611c96565b600c5460ff16156114065760408051600160e51b62461bcd0281526020600482015260106024820152600080516020612be5833981519152604482015290519081900360640190fd5b610b8a8282611cde565b6000610ed5600a8363ffffffff611b5016565b61142b6112f8565b61146d5760408051600160e51b62461bcd0281526020600482018190526024820152600080516020612b4a833981519152604482015290519081900360640190fd5b611479600e8383612917565b507fadf3ae8bd543b3007d464f15cb8ea1db3f44e84d41d203164f40b95e27558ac6828260405180806020018281038252848482818152602001925080828437600083820152604051601f909101601f19169092018290039550909350505050a15050565b6114e9848484610b95565b6114f584848484611dad565b610ce357604051600160e51b62461bcd028152600401808060200182810382526030815260200180612b8c6030913960400191505060405180910390fd5b61153b6112f8565b61157d5760408051600160e51b62461bcd0281526020600482018190526024820152600080516020612b4a833981519152604482015290519081900360640190fd5b611589600d8383612917565b507f4df9dcd34ae35f40f2c756fd8ac83210ed0b76d065543ee73d868aec7c7fcf02828260405180806020018281038252848482818152602001925080828437600083820152604051601f909101601f19169092018290039550909350505050a15050565b60606115f982611996565b61163757604051600160e51b62461bcd02815260040180806020018281038252602e8152602001806129d0602e913960400191505060405180910390fd5b816116c657600f604051602001808280546001816001161561010002031660029004801561169c5780601f1061167a57610100808354040283529182019161169c565b820191906000526020600020905b815481529060010190602001808311611688575b505080600160fc1b600302815250600101915050604051602081830303815290604052905061097c565b60608260005b81156116e057600101600a820491506116cc565b6060816040519080825280601f01601f19166020018201604052801561170d576020820181803883390190505b5090505b85156117565760001990910190600a860660300160f81b81838151811061173457fe5b60200101906001600160f81b031916908160001a905350600a86049550611711565b8093506000600f8054600181600116156101000203166002900490501161178c576040518060200160405280600081525061184f565b600f8460405160200180838054600181600116156101000203166002900480156117ed5780601f106117cb5761010080835404028352918201916117ed565b820191906000526020600020905b8154815290600101906020018083116117d9575b5050825160208401908083835b602083106118195780518252601f1990920191602091820191016117fa565b6001836020036101000a038019825116818451168082178552505050505050905001925050506040516020818303038152906040525b9695505050505050565b6001600160a01b03918216600090815260046020908152604080832093909416825291909152205460ff1690565b61188f6112f8565b6118d15760408051600160e51b62461bcd0281526020600482018190526024820152600080516020612b4a833981519152604482015290519081900360640190fd5b61121481612192565b600c5460ff16156119235760408051600160e51b62461bcd0281526020600482015260106024820152600080516020612be5833981519152604482015290519081900360640190fd5b806119665760408051600160e51b62461bcd0281526020600482015260086024820152600160c41b6704c454e4754485f302604482015290519081900360640190fd5b60005b81811015610a3d5761198e858585858581811061198257fe5b90506020020135610b95565b600101611969565b6000908152600160205260409020546001600160a01b0316151590565b60006119be82611008565b9050806001600160a01b0316836001600160a01b03161415611a2a5760408051600160e51b62461bcd02815260206004820181905260248201527f4b495031373a20617070726f76616c20746f2063757272656e74206f776e6572604482015290519081900360640190fd5b336001600160a01b0382161480611a465750611a468133611859565b611a8457604051600160e51b62461bcd028152600401808060200182810382526037815260200180612c836037913960400191505060405180910390fd5b60008281526002602052604080822080546001600160a01b0319166001600160a01b0387811691821790925591518593918516917f8c5be1e5ebec7d5bd14f71427d1e84f3dd0314c0f7b2291e5b200ac8c7c3b92591a4505050565b611aea3382612236565b611b2857604051600160e51b62461bcd028152600401808060200182810382526030815260200180612b1a6030913960400191505060405180910390fd5b610be98383836122d5565b611b3d82826122f4565b611b47828261242b565b610b8a81612469565b60006001600160a01b038216611b9a57604051600160e51b62461bcd028152600401808060200182810382526022815260200180612b6a6022913960400191505060405180910390fd5b506001600160a01b03166000908152602091909152604090205460ff1690565b611bcb600b8263ffffffff6124ad16565b6040516001600160a01b038216907fcd265ebaf09df2871cc7bd4133404a235ba12eff2041bb89d9c714a2621c7c7e90600090a250565b5490565b611c17600b8263ffffffff61251716565b6040516001600160a01b038216907f6719d08c1888103bea251a4ed56406bd0c3e69723c8a1686e017e7bbe159b6f890600090a250565b611c5f600a8263ffffffff61251716565b6040516001600160a01b038216907f6ae172837ea30b801fbfcdd4108aa1d5bf8ff775444fd70256b44e6bf3dfc3f690600090a250565b611ca7600a8263ffffffff6124ad16565b6040516001600160a01b038216907fe94479a9f7e1952cc78f2d6baab678adc1b772d936c6583def489e524cb6669290600090a250565b6001600160a01b038216331415611d3f5760408051600160e51b62461bcd02815260206004820152601860248201527f4b495031373a20617070726f766520746f2063616c6c65720000000000000000604482015290519081900360640190fd5b3360008181526004602090815260408083206001600160a01b03871680855290835292819020805460ff1916861515908117909155815190815290519293927f17307eab39ab6107e8899845ad3d59bd9653f200f220920489ca2b5937696c31929181900390910190a35050565b6000806060611dc4866001600160a01b031661259b565b611dd35760019250505061218a565b856001600160a01b031663150b7a0260e01b3389888860405160240180856001600160a01b03166001600160a01b03168152602001846001600160a01b03166001600160a01b0316815260200183815260200180602001828103825283818151815260200191508051906020019080838360005b83811015611e5f578181015183820152602001611e47565b50505050905090810190601f168015611e8c5780820380516001836020036101000a031916815260200191505b5060408051601f198184030181529181526020820180516001600160e01b03166001600160e01b0319909a16999099178952518151919890975087965094509250829150849050835b60208310611ef45780518252601f199092019160209182019101611ed5565b6001836020036101000a0380198251168184511680821785525050505050509050019150506000604051808303816000865af19150503d8060008114611f56576040519150601f19603f3d011682016040523d82523d6000602084013e611f5b565b606091505b508051919350915015801590611f9b57508051600160e11b630a85bd01029060208084019190811015611f8d57600080fd5b50516001600160e01b031916145b15611fab5760019250505061218a565b856001600160a01b0316636745782b60e01b3389888860405160240180856001600160a01b03166001600160a01b03168152602001846001600160a01b03166001600160a01b0316815260200183815260200180602001828103825283818151815260200191508051906020019080838360005b8381101561203757818101518382015260200161201f565b50505050905090810190601f1680156120645780820380516001836020036101000a031916815260200191505b5060408051601f198184030181529181526020820180516001600160e01b03166001600160e01b0319909a16999099178952518151919890975087965094509250829150849050835b602083106120cc5780518252601f1990920191602091820191016120ad565b6001836020036101000a0380198251168184511680821785525050505050509050019150506000604051808303816000865af19150503d806000811461212e576040519150601f19603f3d011682016040523d82523d6000602084013e612133565b606091505b50805191935091501580159061217357508051600160e01b636745782b02906020808401919081101561216557600080fd5b50516001600160e01b031916145b156121835760019250505061218a565b6000925050505b949350505050565b6001600160a01b0381166121da57604051600160e51b62461bcd028152600401808060200182810382526026815260200180612a2e6026913960400191505060405180910390fd5b6005546040516001600160a01b038084169216907f8be0079c531659141344cd1fd0a4f28419497f9722a3daafe3b4186f6b6457e090600090a3600580546001600160a01b0319166001600160a01b0392909216919091179055565b600061224182611996565b61227f57604051600160e51b62461bcd02815260040180806020018281038252602b815260200180612cba602b913960400191505060405180910390fd5b600061228a83611008565b9050806001600160a01b0316846001600160a01b031614806122c55750836001600160a01b03166122ba84610ad2565b6001600160a01b0316145b8061218a575061218a8185611859565b6122e08383836125a1565b6122ea83826126eb565b610be9828261242b565b6001600160a01b0382166123525760408051600160e51b62461bcd02815260206004820152601f60248201527f4b495031373a206d696e7420746f20746865207a65726f206164647265737300604482015290519081900360640190fd5b61235b81611996565b156123b05760408051600160e51b62461bcd02815260206004820152601b60248201527f4b495031373a20746f6b656e20616c7265616479206d696e7465640000000000604482015290519081900360640190fd5b600081815260016020908152604080832080546001600160a01b0319166001600160a01b0387169081179091558352600390915290206123ef906127d9565b60405181906001600160a01b038416906000907fddf252ad1be2c89b69c2b068fc378daa952ba7f163c4a11628f55a4df523b3ef908290a45050565b6001600160a01b0390911660009081526006602081815260408084208054868652600784529185208290559282526001810183559183529091200155565b600880546000838152600960205260408120829055600182018355919091527ff3f7a9fe364faab93b216da50a3214154f22a0a2b415b23a84c8169e8b636ee30155565b6124b78282611b50565b6124f557604051600160e51b62461bcd028152600401808060200182810382526021815260200180612ad16021913960400191505060405180910390fd5b6001600160a01b0316600090815260209190915260409020805460ff19169055565b6125218282611b50565b156125765760408051600160e51b62461bcd02815260206004820152601f60248201527f526f6c65733a206163636f756e7420616c72656164792068617320726f6c6500604482015290519081900360640190fd5b6001600160a01b0316600090815260209190915260409020805460ff19166001179055565b3b151590565b826001600160a01b03166125b482611008565b6001600160a01b0316146125fc57604051600160e51b62461bcd028152600401808060200182810382526028815260200180612c056028913960400191505060405180910390fd5b6001600160a01b03821661264457604051600160e51b62461bcd028152600401808060200182810382526023815260200180612a546023913960400191505060405180910390fd5b61264d816127e2565b6001600160a01b038316600090815260036020526040902061266e9061281d565b6001600160a01b038216600090815260036020526040902061268f906127d9565b60008181526001602052604080822080546001600160a01b0319166001600160a01b0386811691821790925591518493918716917fddf252ad1be2c89b69c2b068fc378daa952ba7f163c4a11628f55a4df523b3ef91a4505050565b6001600160a01b03821660009081526006602052604081205461271590600163ffffffff61283416565b6000838152600760205260409020549091508082146127b0576001600160a01b038416600090815260066020526040812080548490811061275257fe5b906000526020600020015490508060066000876001600160a01b03166001600160a01b03168152602001908152602001600020838154811061279057fe5b600091825260208083209091019290925591825260079052604090208190555b6001600160a01b0384166000908152600660205260409020805490610a3d906000198301612995565b80546001019055565b6000818152600260205260409020546001600160a01b03161561121457600090815260026020526040902080546001600160a01b0319169055565b805461283090600163ffffffff61283416565b9055565b600061287683836040518060400160405280601e81526020017f536166654d6174683a207375627472616374696f6e206f766572666c6f77000081525061287d565b9392505050565b6000818484111561290f57604051600160e51b62461bcd0281526004018080602001828103825283818151815260200191508051906020019080838360005b838110156128d45781810151838201526020016128bc565b50505050905090810190601f1680156129015780820380516001836020036101000a031916815260200191505b509250505060405180910390fd5b505050900390565b828054600181600116156101000203166002900490600052602060002090601f016020900481019282601f106129585782800160ff19823516178555612985565b82800160010185558215612985579182015b8281111561298557823582559160200191906001019061296a565b506129919291506129b5565b5090565b815481835581811115610be957600083815260209020610be99181019083015b610b9291905b8082111561299157600081556001016129bb56fe4b495031374d657461646174613a2055524920717565727920666f72206e6f6e6578697374656e7420746f6b656e506175736572526f6c653a2063616c6c657220646f6573206e6f742068617665207468652050617573657220726f6c654f776e61626c653a206e6577206f776e657220697320746865207a65726f20616464726573734b495031373a207472616e7366657220746f20746865207a65726f20616464726573734b49503137456e756d657261626c653a206f776e657220696e646578206f7574206f6620626f756e64734d696e746572526f6c653a2063616c6c657220646f6573206e6f74206861766520746865204d696e74657220726f6c65526f6c65733a206163636f756e7420646f6573206e6f74206861766520726f6c654b495031373a206f776e657220717565727920666f72206e6f6e6578697374656e7420746f6b656e4b495031373a207472616e736665722063616c6c6572206973206e6f74206f776e6572206e6f7220617070726f7665644f776e61626c653a2063616c6c6572206973206e6f7420746865206f776e6572526f6c65733a206163636f756e7420697320746865207a65726f20616464726573734b495031373a207472616e7366657220746f206e6f6e204b49503137526563656976657220696d706c656d656e7465724b495031373a2062616c616e636520717565727920666f7220746865207a65726f20616464726573735061757361626c653a20706175736564000000000000000000000000000000004b495031373a207472616e73666572206f6620746f6b656e2074686174206973206e6f74206f776e4b49503137456e756d657261626c653a20676c6f62616c20696e646578206f7574206f6620626f756e64734b495031373a20617070726f76656420717565727920666f72206e6f6e6578697374656e7420746f6b656e4b495031373a20617070726f76652063616c6c6572206973206e6f74206f776e6572206e6f7220617070726f76656420666f7220616c6c4b495031373a206f70657261746f7220717565727920666f72206e6f6e6578697374656e7420746f6b656ea165627a7a72305820099f5fb0cf970dbf98a4b28b8f0017eda94ea99d45243fdc34d78fee7d06e4d4002968747470733a2f2f6170692e6761696170726f746f636f6c2e636f6d2f6b726f6e6f732f526f6c65733a206163636f756e7420697320746865207a65726f2061646472657373",
  "linkReferences": {},
  "deployedLinkReferences": {}
}